{
  "contractName": "ECRToken",
  "abi": [
    {
      "constant": true,
      "inputs": [],
      "name": "name",
      "outputs": [
        {
          "name": "",
          "type": "string"
        }
      ],
      "payable": false,
      "stateMutability": "view",
      "type": "function"
    },
    {
      "constant": true,
      "inputs": [],
      "name": "decimals",
      "outputs": [
        {
          "name": "",
          "type": "uint256"
        }
      ],
      "payable": false,
      "stateMutability": "view",
      "type": "function"
    },
    {
      "constant": false,
      "inputs": [],
      "name": "kill",
      "outputs": [],
      "payable": false,
      "stateMutability": "nonpayable",
      "type": "function"
    },
    {
      "constant": true,
      "inputs": [
        {
          "name": "who",
          "type": "address"
        }
      ],
      "name": "balanceOf",
      "outputs": [
        {
          "name": "",
          "type": "uint256"
        }
      ],
      "payable": false,
      "stateMutability": "view",
      "type": "function"
    },
    {
      "constant": true,
      "inputs": [],
      "name": "owner",
      "outputs": [
        {
          "name": "",
          "type": "address"
        }
      ],
      "payable": false,
      "stateMutability": "view",
      "type": "function"
    },
    {
      "constant": true,
      "inputs": [],
      "name": "symbol",
      "outputs": [
        {
          "name": "",
          "type": "string"
        }
      ],
      "payable": false,
      "stateMutability": "view",
      "type": "function"
    },
    {
      "constant": false,
      "inputs": [
        {
          "name": "to",
          "type": "address"
        },
        {
          "name": "amount",
          "type": "uint256"
        }
      ],
      "name": "transfer",
      "outputs": [
        {
          "name": "",
          "type": "bool"
        }
      ],
      "payable": false,
      "stateMutability": "nonpayable",
      "type": "function"
    },
    {
      "constant": false,
      "inputs": [
        {
          "name": "newOwner",
          "type": "address"
        }
      ],
      "name": "transferOwnership",
      "outputs": [],
      "payable": false,
      "stateMutability": "nonpayable",
      "type": "function"
    },
    {
      "inputs": [],
      "payable": false,
      "stateMutability": "nonpayable",
      "type": "constructor"
    },
    {
      "payable": false,
      "stateMutability": "nonpayable",
      "type": "fallback"
    },
    {
      "anonymous": false,
      "inputs": [
        {
          "indexed": true,
          "name": "from",
          "type": "address"
        },
        {
          "indexed": true,
          "name": "to",
          "type": "address"
        },
        {
          "indexed": false,
          "name": "value",
          "type": "uint256"
        }
      ],
      "name": "LogTransfer",
      "type": "event"
    }
  ],
  "bytecode": "0x6060604052341561000f57600080fd5b336000806101000a81548173ffffffffffffffffffffffffffffffffffffffff021916908373ffffffffffffffffffffffffffffffffffffffff160217905550620f4240600460003373ffffffffffffffffffffffffffffffffffffffff1673ffffffffffffffffffffffffffffffffffffffff168152602001908152602001600020819055506040805190810160405280600581526020017f4543524f55000000000000000000000000000000000000000000000000000000815250600290805190602001906100e192919061013b565b506040805190810160405280600381526020017f45435200000000000000000000000000000000000000000000000000000000008152506001908051906020019061012d92919061013b565b5060006003819055506101e0565b828054600181600116156101000203166002900490600052602060002090601f016020900481019282601f1061017c57805160ff19168380011785556101aa565b828001600101855582156101aa579182015b828111156101a957825182559160200191906001019061018e565b5b5090506101b791906101bb565b5090565b6101dd91905b808211156101d95760008160009055506001016101c1565b5090565b90565b610837806101ef6000396000f30060606040526004361061008e576000357c0100000000000000000000000000000000000000000000000000000000900463ffffffff16806306fdde031461009e578063313ce5671461012c57806341c0e1b51461015557806370a082311461016a5780638da5cb5b146101b757806395d89b411461020c578063a9059cbb1461029a578063f2fde38b146102f4575b341561009957600080fd5b600080fd5b34156100a957600080fd5b6100b161032d565b6040518080602001828103825283818151815260200191508051906020019080838360005b838110156100f15780820151818401526020810190506100d6565b50505050905090810190601f16801561011e5780820380516001836020036101000a031916815260200191505b509250505060405180910390f35b341561013757600080fd5b61013f6103d5565b6040518082815260200191505060405180910390f35b341561016057600080fd5b6101686103df565b005b341561017557600080fd5b6101a1600480803573ffffffffffffffffffffffffffffffffffffffff16906020019091905050610474565b6040518082815260200191505060405180910390f35b34156101c257600080fd5b6101ca6104bd565b604051808273ffffffffffffffffffffffffffffffffffffffff1673ffffffffffffffffffffffffffffffffffffffff16815260200191505060405180910390f35b341561021757600080fd5b61021f6104e2565b6040518080602001828103825283818151815260200191508051906020019080838360005b8381101561025f578082015181840152602081019050610244565b50505050905090810190601f16801561028c5780820380516001836020036101000a031916815260200191505b509250505060405180910390f35b34156102a557600080fd5b6102da600480803573ffffffffffffffffffffffffffffffffffffffff1690602001909190803590602001909190505061058a565b604051808215151515815260200191505060405180910390f35b34156102ff57600080fd5b61032b600480803573ffffffffffffffffffffffffffffffffffffffff169060200190919050506105f9565b005b6103356107f7565b60028054600181600116156101000203166002900480601f0160208091040260200160405190810160405280929190818152602001828054600181600116156101000203166002900480156103cb5780601f106103a0576101008083540402835291602001916103cb565b820191906000526020600020905b8154815290600101906020018083116103ae57829003601f168201915b5050505050905090565b6000600354905090565b6000809054906101000a900473ffffffffffffffffffffffffffffffffffffffff1673ffffffffffffffffffffffffffffffffffffffff163373ffffffffffffffffffffffffffffffffffffffff1614151561043a57600080fd5b6000809054906101000a900473ffffffffffffffffffffffffffffffffffffffff1673ffffffffffffffffffffffffffffffffffffffff16ff5b6000600460008373ffffffffffffffffffffffffffffffffffffffff1673ffffffffffffffffffffffffffffffffffffffff168152602001908152602001600020549050919050565b6000809054906101000a900473ffffffffffffffffffffffffffffffffffffffff1681565b6104ea6107f7565b60018054600181600116156101000203166002900480601f0160208091040260200160405190810160405280929190818152602001828054600181600116156101000203166002900480156105805780601f1061055557610100808354040283529160200191610580565b820191906000526020600020905b81548152906001019060200180831161056357829003601f168201915b5050505050905090565b60008060009054906101000a900473ffffffffffffffffffffffffffffffffffffffff1673ffffffffffffffffffffffffffffffffffffffff163373ffffffffffffffffffffffffffffffffffffffff161415156105e757600080fd5b6105f18383610697565b905092915050565b6000809054906101000a900473ffffffffffffffffffffffffffffffffffffffff1673ffffffffffffffffffffffffffffffffffffffff163373ffffffffffffffffffffffffffffffffffffffff1614151561065457600080fd5b806000806101000a81548173ffffffffffffffffffffffffffffffffffffffff021916908373ffffffffffffffffffffffffffffffffffffffff16021790555050565b6000816106a333610474565b10156106ae57600080fd5b60006106c26106bc85610474565b846107d6565b14156106cd57600080fd5b81600460003373ffffffffffffffffffffffffffffffffffffffff1673ffffffffffffffffffffffffffffffffffffffff1681526020019081526020016000206000828254039250508190555081600460008573ffffffffffffffffffffffffffffffffffffffff1673ffffffffffffffffffffffffffffffffffffffff168152602001908152602001600020600082825401925050819055508273ffffffffffffffffffffffffffffffffffffffff163373ffffffffffffffffffffffffffffffffffffffff167f0a85107a334eae0d22d21cdf13af0f8e8125039ec60baaa843d2c4c5b0680174846040518082815260200191505060405180910390a36001905092915050565b60008282840110156107eb57600090506107f1565b81830190505b92915050565b6020604051908101604052806000815250905600a165627a7a723058201a8cf668bba8367de723b9ccc9faa8e89f046c713c82cfd748dcf905301f00ab0029",
  "source": "pragma solidity ^0.4.18;\r\n\r\nimport './Owned.sol';\r\n\r\ncontract SafeMath {\r\n  function safeAdd(uint a, uint b) pure internal returns (uint) {\r\n    if (a + b < a) return 0;\r\n    else return a + b;\r\n  }\r\n\r\n  function safeSub(uint a, uint b) pure internal returns (uint) {\r\n    if (b > a) return 0;\r\n    else return a - b;\r\n  }\r\n}\r\n\r\ncontract ECRToken is Owned, SafeMath  {\r\n\r\n  string public symbol;\r\n  string public name;\r\n  uint public decimals;\r\n\r\n  mapping (address => uint) balances;\r\n\r\n  // Triggered when tokens are transferred.\r\n  event LogTransfer(address indexed from, address indexed to, uint value);\r\n\r\n  function () public {\r\n     //if ether is sent to this address, send it back.\r\n     revert();\r\n   }\r\n\r\n  function ECRToken() public {\r\n    balances[msg.sender] = 10**6;  // Give the creator all initial tokens (100000 for example)\r\n    name = \"ECROU\";                // Set the name for display purposes\r\n    symbol = \"ECR\";                // Set the symbol for display purposes\r\n    decimals = 0;                  // Amount of decimals for display purposes\r\n  }\r\n\r\n  // Function to access name of token .\r\n  function name() public constant returns (string){\r\n      return name;\r\n  }\r\n\r\n // Function to access symbol of token .\r\n  function symbol() public constant returns (string ){\r\n      return symbol;\r\n  }\r\n\r\n  // Function to access decimals of token .\r\n  function decimals() public constant returns (uint) {\r\n    return decimals;\r\n  }\r\n\r\n  function balanceOf(address who ) public constant returns (uint) {\r\n    return balances[who];\r\n  }\r\n\r\n  //Transfer permitted only for owner here\r\n  function transfer(address to, uint amount) onlyOwner public returns (bool) {\r\n    return xfer(to, amount);\r\n  }\r\n\r\n  // Process a transfer internally.\r\n  function xfer(address to, uint amount) internal returns (bool){\r\n    if( balanceOf(msg.sender) < amount ) {\r\n      revert();\r\n    }\r\n\r\n    if( safeAdd(balanceOf(to), amount)  == 0 ) {\r\n      revert();\r\n    }\r\n\r\n    balances[msg.sender] -= amount;\r\n    balances[to] += amount;\r\n\r\n    LogTransfer( msg.sender, to, amount );\r\n    return true;\r\n  }\r\n\r\n}\r\n",
  "sourcePath": "C:\\Users\\Fabien\\Desktop\\dev\\LABankapps\\LABankdapp\\contracts\\ECRToken.sol",
  "compiler": {
    "name": "solc",
    "version": "0.4.18+commit.9cf6e910.Emscripten.clang"
  },
  "schemaVersion": "1.0.1",
  "updatedAt": "2018-01-16T09:06:08.152Z"
}