{
  "contractName": "LABankdapp",
  "abi": [
    {
      "constant": true,
      "inputs": [],
      "name": "name",
      "outputs": [
        {
          "name": "",
          "type": "string"
        }
      ],
      "payable": false,
      "stateMutability": "view",
      "type": "function"
    },
    {
      "constant": false,
      "inputs": [
        {
          "name": "from",
          "type": "address"
        },
        {
          "name": "amount",
          "type": "uint256"
        }
      ],
      "name": "reduce",
      "outputs": [
        {
          "name": "",
          "type": "bool"
        }
      ],
      "payable": false,
      "stateMutability": "nonpayable",
      "type": "function"
    },
    {
      "constant": false,
      "inputs": [
        {
          "name": "_greeting",
          "type": "string"
        }
      ],
      "name": "setGreeter",
      "outputs": [],
      "payable": false,
      "stateMutability": "nonpayable",
      "type": "function"
    },
    {
      "constant": false,
      "inputs": [
        {
          "name": "_uad",
          "type": "address"
        },
        {
          "name": "_skill",
          "type": "bytes32"
        }
      ],
      "name": "removeSkill",
      "outputs": [
        {
          "name": "",
          "type": "uint256"
        }
      ],
      "payable": false,
      "stateMutability": "nonpayable",
      "type": "function"
    },
    {
      "constant": true,
      "inputs": [],
      "name": "decimals",
      "outputs": [
        {
          "name": "",
          "type": "uint256"
        }
      ],
      "payable": false,
      "stateMutability": "view",
      "type": "function"
    },
    {
      "constant": false,
      "inputs": [],
      "name": "kill",
      "outputs": [],
      "payable": false,
      "stateMutability": "nonpayable",
      "type": "function"
    },
    {
      "constant": false,
      "inputs": [],
      "name": "insertUser",
      "outputs": [
        {
          "name": "",
          "type": "address"
        }
      ],
      "payable": false,
      "stateMutability": "nonpayable",
      "type": "function"
    },
    {
      "constant": true,
      "inputs": [
        {
          "name": "who",
          "type": "address"
        }
      ],
      "name": "balanceOf",
      "outputs": [
        {
          "name": "",
          "type": "uint256"
        }
      ],
      "payable": false,
      "stateMutability": "view",
      "type": "function"
    },
    {
      "constant": true,
      "inputs": [],
      "name": "owner",
      "outputs": [
        {
          "name": "",
          "type": "address"
        }
      ],
      "payable": false,
      "stateMutability": "view",
      "type": "function"
    },
    {
      "constant": true,
      "inputs": [],
      "name": "symbol",
      "outputs": [
        {
          "name": "",
          "type": "string"
        }
      ],
      "payable": false,
      "stateMutability": "view",
      "type": "function"
    },
    {
      "constant": false,
      "inputs": [
        {
          "name": "to",
          "type": "address"
        },
        {
          "name": "amount",
          "type": "uint256"
        }
      ],
      "name": "transfer",
      "outputs": [
        {
          "name": "",
          "type": "bool"
        }
      ],
      "payable": false,
      "stateMutability": "nonpayable",
      "type": "function"
    },
    {
      "constant": true,
      "inputs": [
        {
          "name": "index",
          "type": "uint256"
        }
      ],
      "name": "getUser",
      "outputs": [
        {
          "name": "",
          "type": "address"
        }
      ],
      "payable": false,
      "stateMutability": "view",
      "type": "function"
    },
    {
      "constant": false,
      "inputs": [
        {
          "name": "_uad",
          "type": "address"
        },
        {
          "name": "_skill",
          "type": "bytes32"
        }
      ],
      "name": "addSkill",
      "outputs": [
        {
          "name": "",
          "type": "uint256"
        }
      ],
      "payable": false,
      "stateMutability": "nonpayable",
      "type": "function"
    },
    {
      "constant": true,
      "inputs": [],
      "name": "greet",
      "outputs": [
        {
          "name": "",
          "type": "string"
        }
      ],
      "payable": false,
      "stateMutability": "view",
      "type": "function"
    },
    {
      "constant": true,
      "inputs": [
        {
          "name": "_uad",
          "type": "address"
        }
      ],
      "name": "getSkills",
      "outputs": [
        {
          "name": "",
          "type": "bytes32[]"
        }
      ],
      "payable": false,
      "stateMutability": "view",
      "type": "function"
    },
    {
      "constant": false,
      "inputs": [
        {
          "name": "newOwner",
          "type": "address"
        }
      ],
      "name": "transferOwnership",
      "outputs": [],
      "payable": false,
      "stateMutability": "nonpayable",
      "type": "function"
    },
    {
      "inputs": [],
      "payable": false,
      "stateMutability": "nonpayable",
      "type": "constructor"
    },
    {
      "payable": false,
      "stateMutability": "nonpayable",
      "type": "fallback"
    },
    {
      "anonymous": false,
      "inputs": [
        {
          "indexed": true,
          "name": "from",
          "type": "address"
        },
        {
          "indexed": true,
          "name": "to",
          "type": "address"
        },
        {
          "indexed": false,
          "name": "value",
          "type": "uint256"
        }
      ],
      "name": "LogTransfer",
      "type": "event"
    }
  ],
  "bytecode": "0x606060405234156200001057600080fd5b336000806101000a81548173ffffffffffffffffffffffffffffffffffffffff021916908373ffffffffffffffffffffffffffffffffffffffff160217905550620f4240600460003373ffffffffffffffffffffffffffffffffffffffff1673ffffffffffffffffffffffffffffffffffffffff168152602001908152602001600020819055506040805190810160405280600581526020017f4543524f5500000000000000000000000000000000000000000000000000000081525060029080519060200190620000e49291906200018f565b506040805190810160405280600381526020017f454352000000000000000000000000000000000000000000000000000000000081525060019080519060200190620001329291906200018f565b5060006003819055506040805190810160405280600b81526020017f48454c4c4f20574f524c4400000000000000000000000000000000000000000081525060059080519060200190620001889291906200018f565b506200023e565b828054600181600116156101000203166002900490600052602060002090601f016020900481019282601f10620001d257805160ff191683800117855562000203565b8280016001018555821562000203579182015b8281111562000202578251825591602001919060010190620001e5565b5b50905062000212919062000216565b5090565b6200023b91905b80821115620002375760008160009055506001016200021d565b5090565b90565b6113b0806200024e6000396000f3006060604052600436106100e6576000357c0100000000000000000000000000000000000000000000000000000000900463ffffffff16806306fdde03146100f65780631395e64014610184578063190663e4146101de5780631a750d811461023b578063313ce5671461029557806341c0e1b5146102be578063444dc9f3146102d357806370a08231146103285780638da5cb5b1461037557806395d89b41146103ca578063a9059cbb14610458578063b0467deb146104b2578063c07b143314610515578063cfae32171461056f578063e63a06d5146105fd578063f2fde38b1461068b575b34156100f157600080fd5b600080fd5b341561010157600080fd5b6101096106c4565b6040518080602001828103825283818151815260200191508051906020019080838360005b8381101561014957808201518184015260208101905061012e565b50505050905090810190601f1680156101765780820380516001836020036101000a031916815260200191505b509250505060405180910390f35b341561018f57600080fd5b6101c4600480803573ffffffffffffffffffffffffffffffffffffffff1690602001909190803590602001909190505061076c565b604051808215151515815260200191505060405180910390f35b34156101e957600080fd5b610239600480803590602001908201803590602001908080601f016020809104026020016040519081016040528093929190818152602001838380828437820191505050505050919050506107f9565b005b341561024657600080fd5b61027f600480803573ffffffffffffffffffffffffffffffffffffffff1690602001909190803560001916906020019091905050610813565b6040518082815260200191505060405180910390f35b34156102a057600080fd5b6102a8610a84565b6040518082815260200191505060405180910390f35b34156102c957600080fd5b6102d1610a8e565b005b34156102de57600080fd5b6102e6610b23565b604051808273ffffffffffffffffffffffffffffffffffffffff1673ffffffffffffffffffffffffffffffffffffffff16815260200191505060405180910390f35b341561033357600080fd5b61035f600480803573ffffffffffffffffffffffffffffffffffffffff16906020019091905050610bb0565b6040518082815260200191505060405180910390f35b341561038057600080fd5b610388610bf9565b604051808273ffffffffffffffffffffffffffffffffffffffff1673ffffffffffffffffffffffffffffffffffffffff16815260200191505060405180910390f35b34156103d557600080fd5b6103dd610c1e565b6040518080602001828103825283818151815260200191508051906020019080838360005b8381101561041d578082015181840152602081019050610402565b50505050905090810190601f16801561044a5780820380516001836020036101000a031916815260200191505b509250505060405180910390f35b341561046357600080fd5b610498600480803573ffffffffffffffffffffffffffffffffffffffff16906020019091908035906020019091905050610cc6565b604051808215151515815260200191505060405180910390f35b34156104bd57600080fd5b6104d36004808035906020019091905050610d35565b604051808273ffffffffffffffffffffffffffffffffffffffff1673ffffffffffffffffffffffffffffffffffffffff16815260200191505060405180910390f35b341561052057600080fd5b610559600480803573ffffffffffffffffffffffffffffffffffffffff1690602001909190803560001916906020019091905050610d90565b6040518082815260200191505060405180910390f35b341561057a57600080fd5b610582610e49565b6040518080602001828103825283818151815260200191508051906020019080838360005b838110156105c25780820151818401526020810190506105a7565b50505050905090810190601f1680156105ef5780820380516001836020036101000a031916815260200191505b509250505060405180910390f35b341561060857600080fd5b610634600480803573ffffffffffffffffffffffffffffffffffffffff16906020019091905050610ef1565b6040518080602001828103825283818151815260200191508051906020019060200280838360005b8381101561067757808201518184015260208101905061065c565b505050509050019250505060405180910390f35b341561069657600080fd5b6106c2600480803573ffffffffffffffffffffffffffffffffffffffff16906020019091905050610f92565b005b6106cc6111af565b60028054600181600116156101000203166002900480601f0160208091040260200160405190810160405280929190818152602001828054600181600116156101000203166002900480156107625780601f1061073757610100808354040283529160200191610762565b820191906000526020600020905b81548152906001019060200180831161074557829003601f168201915b5050505050905090565b60008161077884610bb0565b101561078357600080fd5b600061079761079185610bb0565b84611030565b14156107a257600080fd5b81600460008573ffffffffffffffffffffffffffffffffffffffff1673ffffffffffffffffffffffffffffffffffffffff168152602001908152602001600020600082825403925050819055506001905092915050565b806005908051906020019061080f9291906111c3565b5050565b600080600080600760008773ffffffffffffffffffffffffffffffffffffffff1673ffffffffffffffffffffffffffffffffffffffff1681526020019081526020016000206001600760008973ffffffffffffffffffffffffffffffffffffffff1673ffffffffffffffffffffffffffffffffffffffff16815260200190815260200160002080549050038154811015156108aa57fe5b9060005260206000209001549250600090505b600760008773ffffffffffffffffffffffffffffffffffffffff1673ffffffffffffffffffffffffffffffffffffffff16815260200190815260200160002080549050811015610983578460001916600760008873ffffffffffffffffffffffffffffffffffffffff1673ffffffffffffffffffffffffffffffffffffffff1681526020019081526020016000208281548110151561095857fe5b90600052602060002090015460001916141561097657809150610983565b80806001019150506108bd565b82600760008873ffffffffffffffffffffffffffffffffffffffff1673ffffffffffffffffffffffffffffffffffffffff168152602001908152602001600020838154811015156109d057fe5b90600052602060002090018160001916905550600760008773ffffffffffffffffffffffffffffffffffffffff1673ffffffffffffffffffffffffffffffffffffffff168152602001908152602001600020805480919060019003610a359190611243565b50600760008773ffffffffffffffffffffffffffffffffffffffff1673ffffffffffffffffffffffffffffffffffffffff16815260200190815260200160002080549050935050505092915050565b6000600354905090565b6000809054906101000a900473ffffffffffffffffffffffffffffffffffffffff1673ffffffffffffffffffffffffffffffffffffffff163373ffffffffffffffffffffffffffffffffffffffff16141515610ae957600080fd5b6000809054906101000a900473ffffffffffffffffffffffffffffffffffffffff1673ffffffffffffffffffffffffffffffffffffffff16ff5b600080610b2e61126f565b604051809103906000f0801515610b4457600080fd5b905060068054806001018281610b5a919061127e565b9160005260206000209001600083909190916101000a81548173ffffffffffffffffffffffffffffffffffffffff021916908373ffffffffffffffffffffffffffffffffffffffff160217905550508091505090565b6000600460008373ffffffffffffffffffffffffffffffffffffffff1673ffffffffffffffffffffffffffffffffffffffff168152602001908152602001600020549050919050565b6000809054906101000a900473ffffffffffffffffffffffffffffffffffffffff1681565b610c266111af565b60018054600181600116156101000203166002900480601f016020809104026020016040519081016040528092919081815260200182805460018160011615610100020316600290048015610cbc5780601f10610c9157610100808354040283529160200191610cbc565b820191906000526020600020905b815481529060010190602001808311610c9f57829003601f168201915b5050505050905090565b60008060009054906101000a900473ffffffffffffffffffffffffffffffffffffffff1673ffffffffffffffffffffffffffffffffffffffff163373ffffffffffffffffffffffffffffffffffffffff16141515610d2357600080fd5b610d2d838361104f565b905092915050565b6000816006805490501115610d8657600682815481101515610d5357fe5b906000526020600020900160009054906101000a900473ffffffffffffffffffffffffffffffffffffffff169050610d8b565b600090505b919050565b6000600760008473ffffffffffffffffffffffffffffffffffffffff1673ffffffffffffffffffffffffffffffffffffffff1681526020019081526020016000208054806001018281610de391906112aa565b916000526020600020900160008490919091509060001916905550600760008473ffffffffffffffffffffffffffffffffffffffff1673ffffffffffffffffffffffffffffffffffffffff16815260200190815260200160002080549050905092915050565b610e516111af565b60058054600181600116156101000203166002900480601f016020809104026020016040519081016040528092919081815260200182805460018160011615610100020316600290048015610ee75780601f10610ebc57610100808354040283529160200191610ee7565b820191906000526020600020905b815481529060010190602001808311610eca57829003601f168201915b5050505050905090565b610ef96112d6565b600760008373ffffffffffffffffffffffffffffffffffffffff1673ffffffffffffffffffffffffffffffffffffffff168152602001908152602001600020805480602002602001604051908101604052809291908181526020018280548015610f8657602002820191906000526020600020905b81546000191681526020019060010190808311610f6e575b50505050509050919050565b6000809054906101000a900473ffffffffffffffffffffffffffffffffffffffff1673ffffffffffffffffffffffffffffffffffffffff163373ffffffffffffffffffffffffffffffffffffffff16141515610fed57600080fd5b806000806101000a81548173ffffffffffffffffffffffffffffffffffffffff021916908373ffffffffffffffffffffffffffffffffffffffff16021790555050565b6000828211156110435760009050611049565b81830390505b92915050565b60008161105b33610bb0565b101561106657600080fd5b600061107a61107485610bb0565b8461118e565b141561108557600080fd5b81600460003373ffffffffffffffffffffffffffffffffffffffff1673ffffffffffffffffffffffffffffffffffffffff1681526020019081526020016000206000828254039250508190555081600460008573ffffffffffffffffffffffffffffffffffffffff1673ffffffffffffffffffffffffffffffffffffffff168152602001908152602001600020600082825401925050819055508273ffffffffffffffffffffffffffffffffffffffff163373ffffffffffffffffffffffffffffffffffffffff167f0a85107a334eae0d22d21cdf13af0f8e8125039ec60baaa843d2c4c5b0680174846040518082815260200191505060405180910390a36001905092915050565b60008282840110156111a357600090506111a9565b81830190505b92915050565b602060405190810160405280600081525090565b828054600181600116156101000203166002900490600052602060002090601f016020900481019282601f1061120457805160ff1916838001178555611232565b82800160010185558215611232579182015b82811115611231578251825591602001919060010190611216565b5b50905061123f91906112ea565b5090565b81548183558181151161126a57818360005260206000209182019101611269919061130f565b5b505050565b60405160508061133583390190565b8154818355818115116112a5578183600052602060002091820191016112a491906112ea565b5b505050565b8154818355818115116112d1578183600052602060002091820191016112d0919061130f565b5b505050565b602060405190810160405280600081525090565b61130c91905b808211156113085760008160009055506001016112f0565b5090565b90565b61133191905b8082111561132d576000816000905550600101611315565b5090565b90560060606040523415600e57600080fd5b603580601b6000396000f3006060604052600080fd00a165627a7a7230582015af22894053a1e56df7e587fdda8734562690ee65b08f08076fbb1076d0cef20029a165627a7a723058201be42e78570290e21695ba83bfa7492d8057ad81b84a58f9c6b16e9b357fd7af0029",
  "source": "pragma solidity ^0.4.18;\r\n\r\nimport './Owned.sol';\r\nimport './ECRToken.sol';\r\nimport './Utils.sol';\r\n\r\ncontract User{}\r\n\r\ncontract LABankdapp is Utils, Owned, ECRToken{\r\n    /* Define variable greeting of the type string */\r\n    string greeting;\r\n    address[] private users;\r\n    mapping(address => bytes32[]) private mapSkills;\r\n\r\n    function () public {\r\n        revert(); // throw reverts state to before call\r\n    }\r\n\r\n    function LABankdapp() public{\r\n        greeting = \"HELLO WORLD\";\r\n    }\r\n\r\n    function setGreeter(string _greeting) public {\r\n        greeting = _greeting;\r\n    }\r\n\r\n    /* Main function */\r\n    function greet() constant public returns (string) {\r\n        return greeting;\r\n    }\r\n\r\n    function getUser(uint index) public constant returns(address){\r\n        if(users.length > index) return users[index];\r\n        else return address(0);\r\n    }\r\n\r\n    function insertUser() public returns(address){\r\n        address uad = new User();\r\n        users.push(uad);\r\n        return uad;\r\n    }\r\n\r\n    function getSkills(address _uad) public constant returns(bytes32[]) {\r\n        return mapSkills[_uad];\r\n    }\r\n\r\n    function addSkill(address _uad, bytes32 _skill) public returns(uint){\r\n        mapSkills[_uad].push(_skill);\r\n        return mapSkills[_uad].length;\r\n    }\r\n\r\n    function removeSkill(address _uad, bytes32 _skill) public returns(uint){\r\n        bytes32 lastItem = mapSkills[_uad][mapSkills[_uad].length-1];\r\n        uint res;\r\n        for(uint i = 0; i < mapSkills[_uad].length; i++){\r\n            if(mapSkills[_uad][i] == _skill){\r\n                res = i;\r\n            break;\r\n            }\r\n        }\r\n        mapSkills[_uad][res] = lastItem;\r\n        mapSkills[_uad].length--;\r\n        return(mapSkills[_uad].length);\r\n    }\r\n}\r\n",
  "sourcePath": "C:\\Users\\Fabien\\Desktop\\dev\\LABankapps\\LABankdapp\\contracts\\LABankdapp.sol",
  "compiler": {
    "name": "solc",
    "version": "0.4.18+commit.9cf6e910.Emscripten.clang"
  },
  "schemaVersion": "1.0.1",
  "updatedAt": "2018-01-16T10:12:07.050Z"
}