{
  "contractName": "LABankdapp",
  "abi": [
    {
      "constant": true,
      "inputs": [],
      "name": "name",
      "outputs": [
        {
          "name": "",
          "type": "string"
        }
      ],
      "payable": false,
      "stateMutability": "view",
      "type": "function"
    },
    {
      "constant": false,
      "inputs": [
        {
          "name": "_greeting",
          "type": "string"
        }
      ],
      "name": "setGreeter",
      "outputs": [],
      "payable": false,
      "stateMutability": "nonpayable",
      "type": "function"
    },
    {
      "constant": false,
      "inputs": [
        {
          "name": "_uad",
          "type": "address"
        },
        {
          "name": "_skill",
          "type": "bytes32"
        }
      ],
      "name": "removeSkill",
      "outputs": [
        {
          "name": "",
          "type": "uint256"
        }
      ],
      "payable": false,
      "stateMutability": "nonpayable",
      "type": "function"
    },
    {
      "constant": true,
      "inputs": [],
      "name": "decimals",
      "outputs": [
        {
          "name": "",
          "type": "uint256"
        }
      ],
      "payable": false,
      "stateMutability": "view",
      "type": "function"
    },
    {
      "constant": false,
      "inputs": [],
      "name": "kill",
      "outputs": [],
      "payable": false,
      "stateMutability": "nonpayable",
      "type": "function"
    },
    {
      "constant": false,
      "inputs": [],
      "name": "insertUser",
      "outputs": [
        {
          "name": "",
          "type": "address"
        }
      ],
      "payable": false,
      "stateMutability": "nonpayable",
      "type": "function"
    },
    {
      "constant": true,
      "inputs": [
        {
          "name": "who",
          "type": "address"
        }
      ],
      "name": "balanceOf",
      "outputs": [
        {
          "name": "",
          "type": "uint256"
        }
      ],
      "payable": false,
      "stateMutability": "view",
      "type": "function"
    },
    {
      "constant": true,
      "inputs": [],
      "name": "owner",
      "outputs": [
        {
          "name": "",
          "type": "address"
        }
      ],
      "payable": false,
      "stateMutability": "view",
      "type": "function"
    },
    {
      "constant": true,
      "inputs": [],
      "name": "symbol",
      "outputs": [
        {
          "name": "",
          "type": "string"
        }
      ],
      "payable": false,
      "stateMutability": "view",
      "type": "function"
    },
    {
      "constant": true,
      "inputs": [
        {
          "name": "_uad",
          "type": "address"
        }
      ],
      "name": "countSkills",
      "outputs": [
        {
          "name": "",
          "type": "uint256"
        }
      ],
      "payable": false,
      "stateMutability": "view",
      "type": "function"
    },
    {
      "constant": false,
      "inputs": [
        {
          "name": "to",
          "type": "address"
        },
        {
          "name": "amount",
          "type": "uint256"
        }
      ],
      "name": "transfer",
      "outputs": [
        {
          "name": "",
          "type": "bool"
        }
      ],
      "payable": false,
      "stateMutability": "nonpayable",
      "type": "function"
    },
    {
      "constant": true,
      "inputs": [
        {
          "name": "index",
          "type": "uint256"
        }
      ],
      "name": "getUser",
      "outputs": [
        {
          "name": "",
          "type": "address"
        }
      ],
      "payable": false,
      "stateMutability": "view",
      "type": "function"
    },
    {
      "constant": false,
      "inputs": [
        {
          "name": "_uad",
          "type": "address"
        },
        {
          "name": "_skill",
          "type": "bytes32"
        }
      ],
      "name": "addSkill",
      "outputs": [
        {
          "name": "",
          "type": "uint256"
        }
      ],
      "payable": false,
      "stateMutability": "nonpayable",
      "type": "function"
    },
    {
      "constant": true,
      "inputs": [],
      "name": "greet",
      "outputs": [
        {
          "name": "",
          "type": "string"
        }
      ],
      "payable": false,
      "stateMutability": "view",
      "type": "function"
    },
    {
      "constant": true,
      "inputs": [
        {
          "name": "_uad",
          "type": "address"
        }
      ],
      "name": "getSkills",
      "outputs": [
        {
          "name": "",
          "type": "bytes32[]"
        }
      ],
      "payable": false,
      "stateMutability": "view",
      "type": "function"
    },
    {
      "constant": false,
      "inputs": [
        {
          "name": "newOwner",
          "type": "address"
        }
      ],
      "name": "transferOwnership",
      "outputs": [],
      "payable": false,
      "stateMutability": "nonpayable",
      "type": "function"
    },
    {
      "inputs": [],
      "payable": false,
      "stateMutability": "nonpayable",
      "type": "constructor"
    },
    {
      "payable": false,
      "stateMutability": "nonpayable",
      "type": "fallback"
    },
    {
      "anonymous": false,
      "inputs": [
        {
          "indexed": true,
          "name": "from",
          "type": "address"
        },
        {
          "indexed": true,
          "name": "to",
          "type": "address"
        },
        {
          "indexed": false,
          "name": "value",
          "type": "uint256"
        }
      ],
      "name": "LogTransfer",
      "type": "event"
    }
  ],
  "bytecode": "0x606060405234156200001057600080fd5b336000806101000a81548173ffffffffffffffffffffffffffffffffffffffff021916908373ffffffffffffffffffffffffffffffffffffffff160217905550620f4240600460003373ffffffffffffffffffffffffffffffffffffffff1673ffffffffffffffffffffffffffffffffffffffff168152602001908152602001600020819055506040805190810160405280600581526020017f4543524f5500000000000000000000000000000000000000000000000000000081525060029080519060200190620000e49291906200018f565b506040805190810160405280600381526020017f454352000000000000000000000000000000000000000000000000000000000081525060019080519060200190620001329291906200018f565b5060006003819055506040805190810160405280600b81526020017f48454c4c4f20574f524c4400000000000000000000000000000000000000000081525060059080519060200190620001889291906200018f565b506200023e565b828054600181600116156101000203166002900490600052602060002090601f016020900481019282601f10620001d257805160ff191683800117855562000203565b8280016001018555821562000203579182015b8281111562000202578251825591602001919060010190620001e5565b5b50905062000212919062000216565b5090565b6200023b91905b80821115620002375760008160009055506001016200021d565b5090565b90565b611343806200024e6000396000f3006060604052600436106100e6576000357c0100000000000000000000000000000000000000000000000000000000900463ffffffff16806306fdde03146100f6578063190663e4146101845780631a750d81146101e1578063313ce5671461023b57806341c0e1b514610264578063444dc9f31461027957806370a08231146102ce5780638da5cb5b1461031b57806395d89b4114610370578063a46e2560146103fe578063a9059cbb1461044b578063b0467deb146104a5578063c07b143314610508578063cfae321714610562578063e63a06d5146105f0578063f2fde38b1461067e575b34156100f157600080fd5b600080fd5b341561010157600080fd5b6101096106b7565b6040518080602001828103825283818151815260200191508051906020019080838360005b8381101561014957808201518184015260208101905061012e565b50505050905090810190601f1680156101765780820380516001836020036101000a031916815260200191505b509250505060405180910390f35b341561018f57600080fd5b6101df600480803590602001908201803590602001908080601f0160208091040260200160405190810160405280939291908181526020018383808284378201915050505050509190505061075f565b005b34156101ec57600080fd5b610225600480803573ffffffffffffffffffffffffffffffffffffffff1690602001909190803560001916906020019091905050610779565b6040518082815260200191505060405180910390f35b341561024657600080fd5b61024e6109ea565b6040518082815260200191505060405180910390f35b341561026f57600080fd5b6102776109f4565b005b341561028457600080fd5b61028c610a89565b604051808273ffffffffffffffffffffffffffffffffffffffff1673ffffffffffffffffffffffffffffffffffffffff16815260200191505060405180910390f35b34156102d957600080fd5b610305600480803573ffffffffffffffffffffffffffffffffffffffff16906020019091905050610b16565b6040518082815260200191505060405180910390f35b341561032657600080fd5b61032e610b5f565b604051808273ffffffffffffffffffffffffffffffffffffffff1673ffffffffffffffffffffffffffffffffffffffff16815260200191505060405180910390f35b341561037b57600080fd5b610383610b84565b6040518080602001828103825283818151815260200191508051906020019080838360005b838110156103c35780820151818401526020810190506103a8565b50505050905090810190601f1680156103f05780820380516001836020036101000a031916815260200191505b509250505060405180910390f35b341561040957600080fd5b610435600480803573ffffffffffffffffffffffffffffffffffffffff16906020019091905050610c2c565b6040518082815260200191505060405180910390f35b341561045657600080fd5b61048b600480803573ffffffffffffffffffffffffffffffffffffffff16906020019091908035906020019091905050610c78565b604051808215151515815260200191505060405180910390f35b34156104b057600080fd5b6104c66004808035906020019091905050610ce7565b604051808273ffffffffffffffffffffffffffffffffffffffff1673ffffffffffffffffffffffffffffffffffffffff16815260200191505060405180910390f35b341561051357600080fd5b61054c600480803573ffffffffffffffffffffffffffffffffffffffff1690602001909190803560001916906020019091905050610d42565b6040518082815260200191505060405180910390f35b341561056d57600080fd5b610575610dfb565b6040518080602001828103825283818151815260200191508051906020019080838360005b838110156105b557808201518184015260208101905061059a565b50505050905090810190601f1680156105e25780820380516001836020036101000a031916815260200191505b509250505060405180910390f35b34156105fb57600080fd5b610627600480803573ffffffffffffffffffffffffffffffffffffffff16906020019091905050610ea3565b6040518080602001828103825283818151815260200191508051906020019060200280838360005b8381101561066a57808201518184015260208101905061064f565b505050509050019250505060405180910390f35b341561068957600080fd5b6106b5600480803573ffffffffffffffffffffffffffffffffffffffff16906020019091905050610f44565b005b6106bf611142565b60028054600181600116156101000203166002900480601f0160208091040260200160405190810160405280929190818152602001828054600181600116156101000203166002900480156107555780601f1061072a57610100808354040283529160200191610755565b820191906000526020600020905b81548152906001019060200180831161073857829003601f168201915b5050505050905090565b8060059080519060200190610775929190611156565b5050565b600080600080600760008773ffffffffffffffffffffffffffffffffffffffff1673ffffffffffffffffffffffffffffffffffffffff1681526020019081526020016000206001600760008973ffffffffffffffffffffffffffffffffffffffff1673ffffffffffffffffffffffffffffffffffffffff168152602001908152602001600020805490500381548110151561081057fe5b9060005260206000209001549250600090505b600760008773ffffffffffffffffffffffffffffffffffffffff1673ffffffffffffffffffffffffffffffffffffffff168152602001908152602001600020805490508110156108e9578460001916600760008873ffffffffffffffffffffffffffffffffffffffff1673ffffffffffffffffffffffffffffffffffffffff168152602001908152602001600020828154811015156108be57fe5b9060005260206000209001546000191614156108dc578091506108e9565b8080600101915050610823565b82600760008873ffffffffffffffffffffffffffffffffffffffff1673ffffffffffffffffffffffffffffffffffffffff1681526020019081526020016000208381548110151561093657fe5b90600052602060002090018160001916905550600760008773ffffffffffffffffffffffffffffffffffffffff1673ffffffffffffffffffffffffffffffffffffffff16815260200190815260200160002080548091906001900361099b91906111d6565b50600760008773ffffffffffffffffffffffffffffffffffffffff1673ffffffffffffffffffffffffffffffffffffffff16815260200190815260200160002080549050935050505092915050565b6000600354905090565b6000809054906101000a900473ffffffffffffffffffffffffffffffffffffffff1673ffffffffffffffffffffffffffffffffffffffff163373ffffffffffffffffffffffffffffffffffffffff16141515610a4f57600080fd5b6000809054906101000a900473ffffffffffffffffffffffffffffffffffffffff1673ffffffffffffffffffffffffffffffffffffffff16ff5b600080610a94611202565b604051809103906000f0801515610aaa57600080fd5b905060068054806001018281610ac09190611211565b9160005260206000209001600083909190916101000a81548173ffffffffffffffffffffffffffffffffffffffff021916908373ffffffffffffffffffffffffffffffffffffffff160217905550508091505090565b6000600460008373ffffffffffffffffffffffffffffffffffffffff1673ffffffffffffffffffffffffffffffffffffffff168152602001908152602001600020549050919050565b6000809054906101000a900473ffffffffffffffffffffffffffffffffffffffff1681565b610b8c611142565b60018054600181600116156101000203166002900480601f016020809104026020016040519081016040528092919081815260200182805460018160011615610100020316600290048015610c225780601f10610bf757610100808354040283529160200191610c22565b820191906000526020600020905b815481529060010190602001808311610c0557829003601f168201915b5050505050905090565b6000600760008373ffffffffffffffffffffffffffffffffffffffff1673ffffffffffffffffffffffffffffffffffffffff168152602001908152602001600020805490509050919050565b60008060009054906101000a900473ffffffffffffffffffffffffffffffffffffffff1673ffffffffffffffffffffffffffffffffffffffff163373ffffffffffffffffffffffffffffffffffffffff16141515610cd557600080fd5b610cdf8383610fe2565b905092915050565b6000816006805490501115610d3857600682815481101515610d0557fe5b906000526020600020900160009054906101000a900473ffffffffffffffffffffffffffffffffffffffff169050610d3d565b600090505b919050565b6000600760008473ffffffffffffffffffffffffffffffffffffffff1673ffffffffffffffffffffffffffffffffffffffff1681526020019081526020016000208054806001018281610d95919061123d565b916000526020600020900160008490919091509060001916905550600760008473ffffffffffffffffffffffffffffffffffffffff1673ffffffffffffffffffffffffffffffffffffffff16815260200190815260200160002080549050905092915050565b610e03611142565b60058054600181600116156101000203166002900480601f016020809104026020016040519081016040528092919081815260200182805460018160011615610100020316600290048015610e995780601f10610e6e57610100808354040283529160200191610e99565b820191906000526020600020905b815481529060010190602001808311610e7c57829003601f168201915b5050505050905090565b610eab611269565b600760008373ffffffffffffffffffffffffffffffffffffffff1673ffffffffffffffffffffffffffffffffffffffff168152602001908152602001600020805480602002602001604051908101604052809291908181526020018280548015610f3857602002820191906000526020600020905b81546000191681526020019060010190808311610f20575b50505050509050919050565b6000809054906101000a900473ffffffffffffffffffffffffffffffffffffffff1673ffffffffffffffffffffffffffffffffffffffff163373ffffffffffffffffffffffffffffffffffffffff16141515610f9f57600080fd5b806000806101000a81548173ffffffffffffffffffffffffffffffffffffffff021916908373ffffffffffffffffffffffffffffffffffffffff16021790555050565b600081610fee33610b16565b1015610ff957600080fd5b600061100d61100785610b16565b84611121565b141561101857600080fd5b81600460003373ffffffffffffffffffffffffffffffffffffffff1673ffffffffffffffffffffffffffffffffffffffff1681526020019081526020016000206000828254039250508190555081600460008573ffffffffffffffffffffffffffffffffffffffff1673ffffffffffffffffffffffffffffffffffffffff168152602001908152602001600020600082825401925050819055508273ffffffffffffffffffffffffffffffffffffffff163373ffffffffffffffffffffffffffffffffffffffff167f0a85107a334eae0d22d21cdf13af0f8e8125039ec60baaa843d2c4c5b0680174846040518082815260200191505060405180910390a36001905092915050565b6000828284011015611136576000905061113c565b81830190505b92915050565b602060405190810160405280600081525090565b828054600181600116156101000203166002900490600052602060002090601f016020900481019282601f1061119757805160ff19168380011785556111c5565b828001600101855582156111c5579182015b828111156111c45782518255916020019190600101906111a9565b5b5090506111d2919061127d565b5090565b8154818355818115116111fd578183600052602060002091820191016111fc91906112a2565b5b505050565b6040516050806112c883390190565b81548183558181151161123857818360005260206000209182019101611237919061127d565b5b505050565b8154818355818115116112645781836000526020600020918201910161126391906112a2565b5b505050565b602060405190810160405280600081525090565b61129f91905b8082111561129b576000816000905550600101611283565b5090565b90565b6112c491905b808211156112c05760008160009055506001016112a8565b5090565b90560060606040523415600e57600080fd5b603580601b6000396000f3006060604052600080fd00a165627a7a72305820a38865f0f4a7eedea9d66e4e1f4f71f847a8ad7405080b469c2976fbb1b1b15e0029a165627a7a72305820fb1c8b719fdb10ba558d75b9be5635e0523f46cac57c34ad3ae77ca229bfd37e0029",
  "source": "pragma solidity ^0.4.18;\r\n\r\nimport './Owned.sol';\r\nimport './ECRToken.sol';\r\nimport './Utils.sol';\r\n\r\ncontract User{}\r\n\r\ncontract LABankdapp is Utils, Owned, ECRToken{\r\n    /* Define variable greeting of the type string */\r\n    string greeting;\r\n    address[] private users;\r\n    mapping(address => bytes32[]) private mapSkills;\r\n\r\n    function () public {\r\n        revert(); // throw reverts state to before call\r\n    }\r\n\r\n    function LABankdapp() public{\r\n        greeting = \"HELLO WORLD\";\r\n    }\r\n\r\n    function setGreeter(string _greeting) public {\r\n        greeting = _greeting;\r\n    }\r\n\r\n    /* Main function */\r\n    function greet() constant public returns (string) {\r\n        return greeting;\r\n    }\r\n\r\n    function getUser(uint index) public constant returns(address){\r\n        if(users.length > index) return users[index];\r\n        else return address(0);\r\n    }\r\n\r\n    function insertUser() public returns(address){\r\n        address uad = new User();\r\n        users.push(uad);\r\n        return uad;\r\n    }\r\n\r\n    function getSkills(address _uad) public constant returns(bytes32[]) {\r\n        return mapSkills[_uad];\r\n    }\r\n\r\n    function addSkill(address _uad, bytes32 _skill) public returns(uint){\r\n        mapSkills[_uad].push(_skill);\r\n        return mapSkills[_uad].length;\r\n    }\r\n\r\n    function removeSkill(address _uad, bytes32 _skill) public returns(uint){\r\n        bytes32 lastItem = mapSkills[_uad][mapSkills[_uad].length-1];\r\n        uint res;\r\n        for(uint i = 0; i < mapSkills[_uad].length; i++){\r\n            if(mapSkills[_uad][i] == _skill){\r\n                res = i;\r\n            break;\r\n            }\r\n        }\r\n        mapSkills[_uad][res] = lastItem;\r\n        mapSkills[_uad].length--;\r\n        return(mapSkills[_uad].length);\r\n    }\r\n\r\n    function countSkills(address _uad) public constant returns(uint){\r\n        return mapSkills[_uad].length;\r\n    }\r\n\r\n}\r\n",
  "sourcePath": "C:\\Users\\Fabien\\Desktop\\dev\\LABankapps\\LABankdapp\\contracts\\LABankdapp.sol",
  "compiler": {
    "name": "solc",
    "version": "0.4.18+commit.9cf6e910.Emscripten.clang"
  },
  "schemaVersion": "1.0.1",
  "updatedAt": "2018-01-16T09:06:46.063Z"
}